{
	"data": {
		"bytecode": {
			"linkReferences": {},
			"object": "608060405234801561001057600080fd5b50336000806101000a81548173ffffffffffffffffffffffffffffffffffffffff021916908373ffffffffffffffffffffffffffffffffffffffff16021790555061048d806100606000396000f3fe608060405234801561001057600080fd5b50600436106100415760003560e01c806323789469146100465780636e52f1f414610062578063f830af1214610080575b600080fd5b610060600480360381019061005b91906102cb565b6100b0565b005b61006a6101d2565b60405161007791906103c1565b60405180910390f35b61009a6004803603810190610095919061029e565b61021d565b6040516100a791906103c1565b60405180910390f35b60008054906101000a900473ffffffffffffffffffffffffffffffffffffffff1673ffffffffffffffffffffffffffffffffffffffff163373ffffffffffffffffffffffffffffffffffffffff161461013e576040517f08c379a0000000000000000000000000000000000000000000000000000000008152600401610135906103a1565b60405180910390fd5b60405180606001604052808481526020018381526020018281525060026000858152602001908152602001600020600082015181600001556020820151816001015560408201518160020155905050826001819055507fefb6276823cb7de1e91395301e2154b189e3f48453974ad7afe453d4cb74681d6001546040516101c591906103dc565b60405180910390a1505050565b6101da610268565b6002600060015481526020019081526020016000206040518060600160405290816000820154815260200160018201548152602001600282015481525050905090565b610225610268565b6002600083815260200190815260200160002060405180606001604052908160008201548152602001600182015481526020016002820154815250509050919050565b60405180606001604052806000815260200160008152602001600081525090565b60008135905061029881610440565b92915050565b6000602082840312156102b4576102b3610412565b5b60006102c284828501610289565b91505092915050565b6000806000606084860312156102e4576102e3610412565b5b60006102f286828701610289565b935050602061030386828701610289565b925050604061031486828701610289565b9150509250925092565b600061032b6013836103f7565b915061033682610417565b602082019050919050565b6060820160008201516103576000850182610383565b50602082015161036a6020850182610383565b50604082015161037d6040850182610383565b50505050565b61038c81610408565b82525050565b61039b81610408565b82525050565b600060208201905081810360008301526103ba8161031e565b9050919050565b60006060820190506103d66000830184610341565b92915050565b60006020820190506103f16000830184610392565b92915050565b600082825260208201905092915050565b6000819050919050565b600080fd5b7f43616c6c6572206973206e6f74206f776e657200000000000000000000000000600082015250565b61044981610408565b811461045457600080fd5b5056fea2646970667358221220e4afbca722f85fc8c20e0bb35bdf9b730b9ae72b4751a67b9e91e4a444bee9eb64736f6c63430008070033",
			"opcodes": "PUSH1 0x80 PUSH1 0x40 MSTORE CALLVALUE DUP1 ISZERO PUSH2 0x10 JUMPI PUSH1 0x0 DUP1 REVERT JUMPDEST POP CALLER PUSH1 0x0 DUP1 PUSH2 0x100 EXP DUP2 SLOAD DUP2 PUSH20 0xFFFFFFFFFFFFFFFFFFFFFFFFFFFFFFFFFFFFFFFF MUL NOT AND SWAP1 DUP4 PUSH20 0xFFFFFFFFFFFFFFFFFFFFFFFFFFFFFFFFFFFFFFFF AND MUL OR SWAP1 SSTORE POP PUSH2 0x48D DUP1 PUSH2 0x60 PUSH1 0x0 CODECOPY PUSH1 0x0 RETURN INVALID PUSH1 0x80 PUSH1 0x40 MSTORE CALLVALUE DUP1 ISZERO PUSH2 0x10 JUMPI PUSH1 0x0 DUP1 REVERT JUMPDEST POP PUSH1 0x4 CALLDATASIZE LT PUSH2 0x41 JUMPI PUSH1 0x0 CALLDATALOAD PUSH1 0xE0 SHR DUP1 PUSH4 0x23789469 EQ PUSH2 0x46 JUMPI DUP1 PUSH4 0x6E52F1F4 EQ PUSH2 0x62 JUMPI DUP1 PUSH4 0xF830AF12 EQ PUSH2 0x80 JUMPI JUMPDEST PUSH1 0x0 DUP1 REVERT JUMPDEST PUSH2 0x60 PUSH1 0x4 DUP1 CALLDATASIZE SUB DUP2 ADD SWAP1 PUSH2 0x5B SWAP2 SWAP1 PUSH2 0x2CB JUMP JUMPDEST PUSH2 0xB0 JUMP JUMPDEST STOP JUMPDEST PUSH2 0x6A PUSH2 0x1D2 JUMP JUMPDEST PUSH1 0x40 MLOAD PUSH2 0x77 SWAP2 SWAP1 PUSH2 0x3C1 JUMP JUMPDEST PUSH1 0x40 MLOAD DUP1 SWAP2 SUB SWAP1 RETURN JUMPDEST PUSH2 0x9A PUSH1 0x4 DUP1 CALLDATASIZE SUB DUP2 ADD SWAP1 PUSH2 0x95 SWAP2 SWAP1 PUSH2 0x29E JUMP JUMPDEST PUSH2 0x21D JUMP JUMPDEST PUSH1 0x40 MLOAD PUSH2 0xA7 SWAP2 SWAP1 PUSH2 0x3C1 JUMP JUMPDEST PUSH1 0x40 MLOAD DUP1 SWAP2 SUB SWAP1 RETURN JUMPDEST PUSH1 0x0 DUP1 SLOAD SWAP1 PUSH2 0x100 EXP SWAP1 DIV PUSH20 0xFFFFFFFFFFFFFFFFFFFFFFFFFFFFFFFFFFFFFFFF AND PUSH20 0xFFFFFFFFFFFFFFFFFFFFFFFFFFFFFFFFFFFFFFFF AND CALLER PUSH20 0xFFFFFFFFFFFFFFFFFFFFFFFFFFFFFFFFFFFFFFFF AND EQ PUSH2 0x13E JUMPI PUSH1 0x40 MLOAD PUSH32 0x8C379A000000000000000000000000000000000000000000000000000000000 DUP2 MSTORE PUSH1 0x4 ADD PUSH2 0x135 SWAP1 PUSH2 0x3A1 JUMP JUMPDEST PUSH1 0x40 MLOAD DUP1 SWAP2 SUB SWAP1 REVERT JUMPDEST PUSH1 0x40 MLOAD DUP1 PUSH1 0x60 ADD PUSH1 0x40 MSTORE DUP1 DUP5 DUP2 MSTORE PUSH1 0x20 ADD DUP4 DUP2 MSTORE PUSH1 0x20 ADD DUP3 DUP2 MSTORE POP PUSH1 0x2 PUSH1 0x0 DUP6 DUP2 MSTORE PUSH1 0x20 ADD SWAP1 DUP2 MSTORE PUSH1 0x20 ADD PUSH1 0x0 KECCAK256 PUSH1 0x0 DUP3 ADD MLOAD DUP2 PUSH1 0x0 ADD SSTORE PUSH1 0x20 DUP3 ADD MLOAD DUP2 PUSH1 0x1 ADD SSTORE PUSH1 0x40 DUP3 ADD MLOAD DUP2 PUSH1 0x2 ADD SSTORE SWAP1 POP POP DUP3 PUSH1 0x1 DUP2 SWAP1 SSTORE POP PUSH32 0xEFB6276823CB7DE1E91395301E2154B189E3F48453974AD7AFE453D4CB74681D PUSH1 0x1 SLOAD PUSH1 0x40 MLOAD PUSH2 0x1C5 SWAP2 SWAP1 PUSH2 0x3DC JUMP JUMPDEST PUSH1 0x40 MLOAD DUP1 SWAP2 SUB SWAP1 LOG1 POP POP POP JUMP JUMPDEST PUSH2 0x1DA PUSH2 0x268 JUMP JUMPDEST PUSH1 0x2 PUSH1 0x0 PUSH1 0x1 SLOAD DUP2 MSTORE PUSH1 0x20 ADD SWAP1 DUP2 MSTORE PUSH1 0x20 ADD PUSH1 0x0 KECCAK256 PUSH1 0x40 MLOAD DUP1 PUSH1 0x60 ADD PUSH1 0x40 MSTORE SWAP1 DUP2 PUSH1 0x0 DUP3 ADD SLOAD DUP2 MSTORE PUSH1 0x20 ADD PUSH1 0x1 DUP3 ADD SLOAD DUP2 MSTORE PUSH1 0x20 ADD PUSH1 0x2 DUP3 ADD SLOAD DUP2 MSTORE POP POP SWAP1 POP SWAP1 JUMP JUMPDEST PUSH2 0x225 PUSH2 0x268 JUMP JUMPDEST PUSH1 0x2 PUSH1 0x0 DUP4 DUP2 MSTORE PUSH1 0x20 ADD SWAP1 DUP2 MSTORE PUSH1 0x20 ADD PUSH1 0x0 KECCAK256 PUSH1 0x40 MLOAD DUP1 PUSH1 0x60 ADD PUSH1 0x40 MSTORE SWAP1 DUP2 PUSH1 0x0 DUP3 ADD SLOAD DUP2 MSTORE PUSH1 0x20 ADD PUSH1 0x1 DUP3 ADD SLOAD DUP2 MSTORE PUSH1 0x20 ADD PUSH1 0x2 DUP3 ADD SLOAD DUP2 MSTORE POP POP SWAP1 POP SWAP2 SWAP1 POP JUMP JUMPDEST PUSH1 0x40 MLOAD DUP1 PUSH1 0x60 ADD PUSH1 0x40 MSTORE DUP1 PUSH1 0x0 DUP2 MSTORE PUSH1 0x20 ADD PUSH1 0x0 DUP2 MSTORE PUSH1 0x20 ADD PUSH1 0x0 DUP2 MSTORE POP SWAP1 JUMP JUMPDEST PUSH1 0x0 DUP2 CALLDATALOAD SWAP1 POP PUSH2 0x298 DUP2 PUSH2 0x440 JUMP JUMPDEST SWAP3 SWAP2 POP POP JUMP JUMPDEST PUSH1 0x0 PUSH1 0x20 DUP3 DUP5 SUB SLT ISZERO PUSH2 0x2B4 JUMPI PUSH2 0x2B3 PUSH2 0x412 JUMP JUMPDEST JUMPDEST PUSH1 0x0 PUSH2 0x2C2 DUP5 DUP3 DUP6 ADD PUSH2 0x289 JUMP JUMPDEST SWAP2 POP POP SWAP3 SWAP2 POP POP JUMP JUMPDEST PUSH1 0x0 DUP1 PUSH1 0x0 PUSH1 0x60 DUP5 DUP7 SUB SLT ISZERO PUSH2 0x2E4 JUMPI PUSH2 0x2E3 PUSH2 0x412 JUMP JUMPDEST JUMPDEST PUSH1 0x0 PUSH2 0x2F2 DUP7 DUP3 DUP8 ADD PUSH2 0x289 JUMP JUMPDEST SWAP4 POP POP PUSH1 0x20 PUSH2 0x303 DUP7 DUP3 DUP8 ADD PUSH2 0x289 JUMP JUMPDEST SWAP3 POP POP PUSH1 0x40 PUSH2 0x314 DUP7 DUP3 DUP8 ADD PUSH2 0x289 JUMP JUMPDEST SWAP2 POP POP SWAP3 POP SWAP3 POP SWAP3 JUMP JUMPDEST PUSH1 0x0 PUSH2 0x32B PUSH1 0x13 DUP4 PUSH2 0x3F7 JUMP JUMPDEST SWAP2 POP PUSH2 0x336 DUP3 PUSH2 0x417 JUMP JUMPDEST PUSH1 0x20 DUP3 ADD SWAP1 POP SWAP2 SWAP1 POP JUMP JUMPDEST PUSH1 0x60 DUP3 ADD PUSH1 0x0 DUP3 ADD MLOAD PUSH2 0x357 PUSH1 0x0 DUP6 ADD DUP3 PUSH2 0x383 JUMP JUMPDEST POP PUSH1 0x20 DUP3 ADD MLOAD PUSH2 0x36A PUSH1 0x20 DUP6 ADD DUP3 PUSH2 0x383 JUMP JUMPDEST POP PUSH1 0x40 DUP3 ADD MLOAD PUSH2 0x37D PUSH1 0x40 DUP6 ADD DUP3 PUSH2 0x383 JUMP JUMPDEST POP POP POP POP JUMP JUMPDEST PUSH2 0x38C DUP2 PUSH2 0x408 JUMP JUMPDEST DUP3 MSTORE POP POP JUMP JUMPDEST PUSH2 0x39B DUP2 PUSH2 0x408 JUMP JUMPDEST DUP3 MSTORE POP POP JUMP JUMPDEST PUSH1 0x0 PUSH1 0x20 DUP3 ADD SWAP1 POP DUP2 DUP2 SUB PUSH1 0x0 DUP4 ADD MSTORE PUSH2 0x3BA DUP2 PUSH2 0x31E JUMP JUMPDEST SWAP1 POP SWAP2 SWAP1 POP JUMP JUMPDEST PUSH1 0x0 PUSH1 0x60 DUP3 ADD SWAP1 POP PUSH2 0x3D6 PUSH1 0x0 DUP4 ADD DUP5 PUSH2 0x341 JUMP JUMPDEST SWAP3 SWAP2 POP POP JUMP JUMPDEST PUSH1 0x0 PUSH1 0x20 DUP3 ADD SWAP1 POP PUSH2 0x3F1 PUSH1 0x0 DUP4 ADD DUP5 PUSH2 0x392 JUMP JUMPDEST SWAP3 SWAP2 POP POP JUMP JUMPDEST PUSH1 0x0 DUP3 DUP3 MSTORE PUSH1 0x20 DUP3 ADD SWAP1 POP SWAP3 SWAP2 POP POP JUMP JUMPDEST PUSH1 0x0 DUP2 SWAP1 POP SWAP2 SWAP1 POP JUMP JUMPDEST PUSH1 0x0 DUP1 REVERT JUMPDEST PUSH32 0x43616C6C6572206973206E6F74206F776E657200000000000000000000000000 PUSH1 0x0 DUP3 ADD MSTORE POP JUMP JUMPDEST PUSH2 0x449 DUP2 PUSH2 0x408 JUMP JUMPDEST DUP2 EQ PUSH2 0x454 JUMPI PUSH1 0x0 DUP1 REVERT JUMPDEST POP JUMP INVALID LOG2 PUSH5 0x6970667358 0x22 SLT KECCAK256 0xE4 0xAF 0xBC 0xA7 0x22 0xF8 0x5F 0xC8 0xC2 0xE SIGNEXTEND 0xB3 JUMPDEST 0xDF SWAP12 PUSH20 0xB9AE72B4751A67B9E91E4A444BEE9EB64736F6C PUSH4 0x43000807 STOP CALLER "
		},
		"gasEstimates": {
			"creation": {
				"codeDepositCost": "233000",
				"executionCost": "24541",
				"totalCost": "257541"
			},
			"external": {
				"getDailyMeta(uint256)": "infinite",
				"getLastDayMeta()": "infinite",
				"updateDailyMeta(uint256,uint256,uint256)": "infinite"
			}
		},
		"methodIdentifiers": {
			"getDailyMeta(uint256)": "f830af12",
			"getLastDayMeta()": "6e52f1f4",
			"updateDailyMeta(uint256,uint256,uint256)": "23789469"
		}
	},
	"abi": [
		{
			"inputs": [],
			"stateMutability": "nonpayable",
			"type": "constructor"
		},
		{
			"anonymous": false,
			"inputs": [
				{
					"indexed": false,
					"internalType": "uint256",
					"name": "timestamp",
					"type": "uint256"
				}
			],
			"name": "MetaUpdate",
			"type": "event"
		},
		{
			"inputs": [
				{
					"internalType": "uint256",
					"name": "timestamp",
					"type": "uint256"
				}
			],
			"name": "getDailyMeta",
			"outputs": [
				{
					"components": [
						{
							"internalType": "uint256",
							"name": "timestamp",
							"type": "uint256"
						},
						{
							"internalType": "uint256",
							"name": "usedGas",
							"type": "uint256"
						},
						{
							"internalType": "uint256",
							"name": "numberOfBlocks",
							"type": "uint256"
						}
					],
					"internalType": "struct IBoringMeta.Meta",
					"name": "",
					"type": "tuple"
				}
			],
			"stateMutability": "view",
			"type": "function"
		},
		{
			"inputs": [],
			"name": "getLastDayMeta",
			"outputs": [
				{
					"components": [
						{
							"internalType": "uint256",
							"name": "timestamp",
							"type": "uint256"
						},
						{
							"internalType": "uint256",
							"name": "usedGas",
							"type": "uint256"
						},
						{
							"internalType": "uint256",
							"name": "numberOfBlocks",
							"type": "uint256"
						}
					],
					"internalType": "struct IBoringMeta.Meta",
					"name": "",
					"type": "tuple"
				}
			],
			"stateMutability": "view",
			"type": "function"
		},
		{
			"inputs": [
				{
					"internalType": "uint256",
					"name": "timestamp",
					"type": "uint256"
				},
				{
					"internalType": "uint256",
					"name": "usedGas",
					"type": "uint256"
				},
				{
					"internalType": "uint256",
					"name": "numberOfBlocks",
					"type": "uint256"
				}
			],
			"name": "updateDailyMeta",
			"outputs": [],
			"stateMutability": "nonpayable",
			"type": "function"
		}
	]
}